:10020000DB033100021100643E0532B402D316DB79
:1002100005E601CA0F023AB402E6DFD31632B40291
:10022000DB05E610C23102D3143E07CDA702C3207E
:10023000023E0032B6023E3532B5020E0921B70247
:1002400079D3153EDBD3113E42D3283E9BD3233EC8
:1002500040D3237DD3227CD3223AB402F610E6BFEA
:1002600032B402D316D317DB0517DA670279011609
:1002700000094F06807E12231305C275023AB502AB
:100280003DCAA40232B5020C79FE10DA3D023AB43E
:1002900002F620D31632B402D3143E07CDA7020EC5
:1002A00000C33D02C3007A06CFE3E305C2A9023DC5
:0402B000C2A702C916
:0000000000
